{
  "_format": "hh-sol-artifact-1",
  "contractName": "RestrictedAuctionHouse",
  "sourceName": "contracts/RestrictedAuctionHouse.sol",
  "abi": [
    {
      "inputs": [
        {
          "internalType": "address",
          "name": "_zora",
          "type": "address"
        },
        {
          "internalType": "address",
          "name": "_weth",
          "type": "address"
        }
      ],
      "stateMutability": "nonpayable",
      "type": "constructor"
    },
    {
      "anonymous": false,
      "inputs": [
        {
          "indexed": true,
          "internalType": "uint256",
          "name": "auctionId",
          "type": "uint256"
        },
        {
          "indexed": true,
          "internalType": "uint256",
          "name": "tokenId",
          "type": "uint256"
        },
        {
          "indexed": true,
          "internalType": "address",
          "name": "tokenContract",
          "type": "address"
        },
        {
          "indexed": false,
          "internalType": "bool",
          "name": "approved",
          "type": "bool"
        }
      ],
      "name": "AuctionApprovalUpdated",
      "type": "event"
    },
    {
      "anonymous": false,
      "inputs": [
        {
          "indexed": true,
          "internalType": "uint256",
          "name": "auctionId",
          "type": "uint256"
        },
        {
          "indexed": true,
          "internalType": "uint256",
          "name": "tokenId",
          "type": "uint256"
        },
        {
          "indexed": true,
          "internalType": "address",
          "name": "tokenContract",
          "type": "address"
        },
        {
          "indexed": false,
          "internalType": "address",
          "name": "sender",
          "type": "address"
        },
        {
          "indexed": false,
          "internalType": "uint256",
          "name": "value",
          "type": "uint256"
        },
        {
          "indexed": false,
          "internalType": "bool",
          "name": "firstBid",
          "type": "bool"
        },
        {
          "indexed": false,
          "internalType": "bool",
          "name": "extended",
          "type": "bool"
        }
      ],
      "name": "AuctionBid",
      "type": "event"
    },
    {
      "anonymous": false,
      "inputs": [
        {
          "indexed": true,
          "internalType": "uint256",
          "name": "auctionId",
          "type": "uint256"
        },
        {
          "indexed": true,
          "internalType": "uint256",
          "name": "tokenId",
          "type": "uint256"
        },
        {
          "indexed": true,
          "internalType": "address",
          "name": "tokenContract",
          "type": "address"
        },
        {
          "indexed": false,
          "internalType": "address",
          "name": "tokenOwner",
          "type": "address"
        }
      ],
      "name": "AuctionCanceled",
      "type": "event"
    },
    {
      "anonymous": false,
      "inputs": [
        {
          "indexed": true,
          "internalType": "uint256",
          "name": "auctionId",
          "type": "uint256"
        },
        {
          "indexed": true,
          "internalType": "uint256",
          "name": "tokenId",
          "type": "uint256"
        },
        {
          "indexed": true,
          "internalType": "address",
          "name": "tokenContract",
          "type": "address"
        },
        {
          "indexed": false,
          "internalType": "uint256",
          "name": "duration",
          "type": "uint256"
        },
        {
          "indexed": false,
          "internalType": "uint256",
          "name": "reservePrice",
          "type": "uint256"
        },
        {
          "indexed": false,
          "internalType": "address",
          "name": "tokenOwner",
          "type": "address"
        },
        {
          "indexed": false,
          "internalType": "address",
          "name": "curator",
          "type": "address"
        },
        {
          "indexed": false,
          "internalType": "uint8",
          "name": "curatorFeePercentage",
          "type": "uint8"
        },
        {
          "indexed": false,
          "internalType": "address",
          "name": "auctionCurrency",
          "type": "address"
        }
      ],
      "name": "AuctionCreated",
      "type": "event"
    },
    {
      "anonymous": false,
      "inputs": [
        {
          "indexed": true,
          "internalType": "uint256",
          "name": "auctionId",
          "type": "uint256"
        },
        {
          "indexed": true,
          "internalType": "uint256",
          "name": "tokenId",
          "type": "uint256"
        },
        {
          "indexed": true,
          "internalType": "address",
          "name": "tokenContract",
          "type": "address"
        },
        {
          "indexed": false,
          "internalType": "uint256",
          "name": "duration",
          "type": "uint256"
        }
      ],
      "name": "AuctionDurationExtended",
      "type": "event"
    },
    {
      "anonymous": false,
      "inputs": [
        {
          "indexed": true,
          "internalType": "uint256",
          "name": "auctionId",
          "type": "uint256"
        },
        {
          "indexed": true,
          "internalType": "uint256",
          "name": "tokenId",
          "type": "uint256"
        },
        {
          "indexed": true,
          "internalType": "address",
          "name": "tokenContract",
          "type": "address"
        },
        {
          "indexed": false,
          "internalType": "address",
          "name": "tokenOwner",
          "type": "address"
        },
        {
          "indexed": false,
          "internalType": "address",
          "name": "curator",
          "type": "address"
        },
        {
          "indexed": false,
          "internalType": "address",
          "name": "winner",
          "type": "address"
        },
        {
          "indexed": false,
          "internalType": "uint256",
          "name": "amount",
          "type": "uint256"
        },
        {
          "indexed": false,
          "internalType": "uint256",
          "name": "curatorFee",
          "type": "uint256"
        },
        {
          "indexed": false,
          "internalType": "address",
          "name": "auctionCurrency",
          "type": "address"
        }
      ],
      "name": "AuctionEnded",
      "type": "event"
    },
    {
      "anonymous": false,
      "inputs": [
        {
          "indexed": true,
          "internalType": "uint256",
          "name": "auctionId",
          "type": "uint256"
        },
        {
          "indexed": true,
          "internalType": "uint256",
          "name": "tokenId",
          "type": "uint256"
        },
        {
          "indexed": true,
          "internalType": "address",
          "name": "tokenContract",
          "type": "address"
        },
        {
          "indexed": false,
          "internalType": "uint256",
          "name": "reservePrice",
          "type": "uint256"
        }
      ],
      "name": "AuctionReservePriceUpdated",
      "type": "event"
    },
    {
      "stateMutability": "payable",
      "type": "fallback"
    },
    {
      "inputs": [],
      "name": "BIDDER",
      "outputs": [
        {
          "internalType": "bytes32",
          "name": "",
          "type": "bytes32"
        }
      ],
      "stateMutability": "view",
      "type": "function"
    },
    {
      "inputs": [
        {
          "internalType": "uint256",
          "name": "",
          "type": "uint256"
        }
      ],
      "name": "accessControlContracts",
      "outputs": [
        {
          "internalType": "contract IAccessControl",
          "name": "",
          "type": "address"
        }
      ],
      "stateMutability": "view",
      "type": "function"
    },
    {
      "inputs": [
        {
          "internalType": "uint256",
          "name": "",
          "type": "uint256"
        }
      ],
      "name": "auctions",
      "outputs": [
        {
          "internalType": "uint256",
          "name": "tokenId",
          "type": "uint256"
        },
        {
          "internalType": "address",
          "name": "tokenContract",
          "type": "address"
        },
        {
          "internalType": "bool",
          "name": "approved",
          "type": "bool"
        },
        {
          "internalType": "uint256",
          "name": "amount",
          "type": "uint256"
        },
        {
          "internalType": "uint256",
          "name": "duration",
          "type": "uint256"
        },
        {
          "internalType": "uint256",
          "name": "firstBidTime",
          "type": "uint256"
        },
        {
          "internalType": "uint256",
          "name": "reservePrice",
          "type": "uint256"
        },
        {
          "internalType": "uint8",
          "name": "curatorFeePercentage",
          "type": "uint8"
        },
        {
          "internalType": "address",
          "name": "tokenOwner",
          "type": "address"
        },
        {
          "internalType": "address payable",
          "name": "bidder",
          "type": "address"
        },
        {
          "internalType": "address payable",
          "name": "curator",
          "type": "address"
        },
        {
          "internalType": "address",
          "name": "auctionCurrency",
          "type": "address"
        }
      ],
      "stateMutability": "view",
      "type": "function"
    },
    {
      "inputs": [
        {
          "internalType": "uint256",
          "name": "auctionId",
          "type": "uint256"
        }
      ],
      "name": "cancelAuction",
      "outputs": [],
      "stateMutability": "nonpayable",
      "type": "function"
    },
    {
      "inputs": [
        {
          "internalType": "uint256",
          "name": "tokenId",
          "type": "uint256"
        },
        {
          "internalType": "address",
          "name": "tokenContract",
          "type": "address"
        },
        {
          "internalType": "uint256",
          "name": "duration",
          "type": "uint256"
        },
        {
          "internalType": "uint256",
          "name": "reservePrice",
          "type": "uint256"
        },
        {
          "internalType": "address payable",
          "name": "curator",
          "type": "address"
        },
        {
          "internalType": "uint8",
          "name": "curatorFeePercentage",
          "type": "uint8"
        },
        {
          "internalType": "address",
          "name": "auctionCurrency",
          "type": "address"
        }
      ],
      "name": "createAuction",
      "outputs": [
        {
          "internalType": "uint256",
          "name": "",
          "type": "uint256"
        }
      ],
      "stateMutability": "nonpayable",
      "type": "function"
    },
    {
      "inputs": [
        {
          "internalType": "uint256",
          "name": "auctionId",
          "type": "uint256"
        },
        {
          "internalType": "uint256",
          "name": "amount",
          "type": "uint256"
        }
      ],
      "name": "createBid",
      "outputs": [],
      "stateMutability": "payable",
      "type": "function"
    },
    {
      "inputs": [
        {
          "internalType": "uint256",
          "name": "tokenId",
          "type": "uint256"
        },
        {
          "internalType": "address",
          "name": "tokenContract",
          "type": "address"
        },
        {
          "internalType": "uint256",
          "name": "duration",
          "type": "uint256"
        },
        {
          "internalType": "uint256",
          "name": "reservePrice",
          "type": "uint256"
        },
        {
          "internalType": "address payable",
          "name": "curator",
          "type": "address"
        },
        {
          "internalType": "uint8",
          "name": "curatorFeePercentage",
          "type": "uint8"
        },
        {
          "internalType": "address",
          "name": "auctionCurrency",
          "type": "address"
        },
        {
          "internalType": "address",
          "name": "accessControlContract",
          "type": "address"
        }
      ],
      "name": "createRestrictedAuction",
      "outputs": [
        {
          "internalType": "uint256",
          "name": "",
          "type": "uint256"
        }
      ],
      "stateMutability": "nonpayable",
      "type": "function"
    },
    {
      "inputs": [
        {
          "internalType": "uint256",
          "name": "auctionId",
          "type": "uint256"
        }
      ],
      "name": "endAuction",
      "outputs": [],
      "stateMutability": "nonpayable",
      "type": "function"
    },
    {
      "inputs": [],
      "name": "minBidIncrementPercentage",
      "outputs": [
        {
          "internalType": "uint8",
          "name": "",
          "type": "uint8"
        }
      ],
      "stateMutability": "view",
      "type": "function"
    },
    {
      "inputs": [
        {
          "internalType": "uint256",
          "name": "auctionId",
          "type": "uint256"
        },
        {
          "internalType": "bool",
          "name": "approved",
          "type": "bool"
        }
      ],
      "name": "setAuctionApproval",
      "outputs": [],
      "stateMutability": "nonpayable",
      "type": "function"
    },
    {
      "inputs": [
        {
          "internalType": "uint256",
          "name": "auctionId",
          "type": "uint256"
        },
        {
          "internalType": "uint256",
          "name": "reservePrice",
          "type": "uint256"
        }
      ],
      "name": "setAuctionReservePrice",
      "outputs": [],
      "stateMutability": "nonpayable",
      "type": "function"
    },
    {
      "inputs": [],
      "name": "timeBuffer",
      "outputs": [
        {
          "internalType": "uint256",
          "name": "",
          "type": "uint256"
        }
      ],
      "stateMutability": "view",
      "type": "function"
    },
    {
      "inputs": [],
      "name": "wethAddress",
      "outputs": [
        {
          "internalType": "address",
          "name": "",
          "type": "address"
        }
      ],
      "stateMutability": "view",
      "type": "function"
    },
    {
      "inputs": [],
      "name": "zora",
      "outputs": [
        {
          "internalType": "address",
          "name": "",
          "type": "address"
        }
      ],
      "stateMutability": "view",
      "type": "function"
    },
    {
      "stateMutability": "payable",
      "type": "receive"
    }
  ],
  "bytecode": "0x60806040523480156200001157600080fd5b506040516200591c3803806200591c8339818101604052810190620000379190620001f4565b60016000819055508173ffffffffffffffffffffffffffffffffffffffff166301ffc9a76380ac58cd60e01b6040518263ffffffff1660e01b8152600401620000819190620002b4565b60206040518083038186803b1580156200009a57600080fd5b505afa158015620000af573d6000803e3d6000fd5b505050506040513d601f19601f82011682018060405250810190620000d5919062000235565b62000117576040517f08c379a00000000000000000000000000000000000000000000000000000000081526004016200010e90620002d1565b60405180910390fd5b81600260016101000a81548173ffffffffffffffffffffffffffffffffffffffff021916908373ffffffffffffffffffffffffffffffffffffffff16021790555080600360006101000a81548173ffffffffffffffffffffffffffffffffffffffff021916908373ffffffffffffffffffffffffffffffffffffffff1602179055506103846001819055506005600260006101000a81548160ff021916908360ff1602179055505050620003a4565b600081519050620001d78162000370565b92915050565b600081519050620001ee816200038a565b92915050565b600080604083850312156200020857600080fd5b60006200021885828601620001c6565b92505060206200022b85828601620001c6565b9150509250929050565b6000602082840312156200024857600080fd5b60006200025884828501620001dd565b91505092915050565b6200026c8162000324565b82525050565b600062000281601d83620002f3565b91507f446f65736e277420737570706f7274204e465420696e746572666163650000006000830152602082019050919050565b6000602082019050620002cb600083018462000261565b92915050565b60006020820190508181036000830152620002ec8162000272565b9050919050565b600082825260208201905092915050565b6000620003118262000350565b9050919050565b60008115159050919050565b60007fffffffff0000000000000000000000000000000000000000000000000000000082169050919050565b600073ffffffffffffffffffffffffffffffffffffffff82169050919050565b6200037b8162000304565b81146200038757600080fd5b50565b620003958162000318565b8114620003a157600080fd5b50565b61556880620003b46000396000f3fe6080604052600436106100e15760003560e01c80637ef446de1161007f578063b296024d11610059578063b296024d146102e5578063b7751c7114610310578063b9a2de3a1461032c578063ec91f2a414610355576100e8565b80637ef446de1461025657806396b5a75514610293578063973ddb4a146102bc576100e8565b8063571a26a0116100bb578063571a26a01461017d5780636f8a41e1146101c557806375e9249f146101ee5780637a45bcc41461022b576100e8565b80630527a39e146100ea578063166f46a7146101275780634f0e0ef314610152576100e8565b366100e857005b005b3480156100f657600080fd5b50610111600480360381019061010c9190613e5f565b610380565b60405161011e9190614de7565b60405180910390f35b34801561013357600080fd5b5061013c6103b3565b6040516101499190614b8c565b60405180910390f35b34801561015e57600080fd5b506101676103d9565b6040516101749190614b8c565b60405180910390f35b34801561018957600080fd5b506101a4600480360381019061019f9190613e5f565b6103ff565b6040516101bc9c9b9a999897969594939291906151bf565b60405180910390f35b3480156101d157600080fd5b506101ec60048036038101906101e7919061403d565b610519565b005b3480156101fa57600080fd5b5061021560048036038101906102109190613eb1565b610787565b60405161022291906151a4565b60405180910390f35b34801561023757600080fd5b506102406107fd565b60405161024d9190614d88565b60405180910390f35b34801561026257600080fd5b5061027d60048036038101906102789190613f4f565b610814565b60405161028a91906151a4565b60405180910390f35b34801561029f57600080fd5b506102ba60048036038101906102b59190613e5f565b61088a565b005b3480156102c857600080fd5b506102e360048036038101906102de9190614001565b610a9f565b005b3480156102f157600080fd5b506102fa610bf4565b604051610307919061532c565b60405180910390f35b61032a6004803603810190610325919061403d565b610c07565b005b34801561033857600080fd5b50610353600480360381019061034e9190613e5f565b611686565b005b34801561036157600080fd5b5061036a612001565b60405161037791906151a4565b60405180910390f35b60056020528060005260406000206000915054906101000a900473ffffffffffffffffffffffffffffffffffffffff1681565b600260019054906101000a900473ffffffffffffffffffffffffffffffffffffffff1681565b600360009054906101000a900473ffffffffffffffffffffffffffffffffffffffff1681565b60046020528060005260406000206000915090508060000154908060010160009054906101000a900473ffffffffffffffffffffffffffffffffffffffff16908060010160149054906101000a900460ff16908060020154908060030154908060040154908060050154908060060160009054906101000a900460ff16908060060160019054906101000a900473ffffffffffffffffffffffffffffffffffffffff16908060070160009054906101000a900473ffffffffffffffffffffffffffffffffffffffff16908060080160009054906101000a900473ffffffffffffffffffffffffffffffffffffffff16908060090160009054906101000a900473ffffffffffffffffffffffffffffffffffffffff1690508c565b8161052381612007565b610562576040517f08c379a000000000000000000000000000000000000000000000000000000000815260040161055990614fe4565b60405180910390fd5b6004600084815260200190815260200160002060080160009054906101000a900473ffffffffffffffffffffffffffffffffffffffff1673ffffffffffffffffffffffffffffffffffffffff163373ffffffffffffffffffffffffffffffffffffffff16148061063357506004600084815260200190815260200160002060060160019054906101000a900473ffffffffffffffffffffffffffffffffffffffff1673ffffffffffffffffffffffffffffffffffffffff163373ffffffffffffffffffffffffffffffffffffffff16145b610672576040517f08c379a000000000000000000000000000000000000000000000000000000000815260040161066990615044565b60405180910390fd5b60006004600085815260200190815260200160002060040154146106cb576040517f08c379a00000000000000000000000000000000000000000000000000000000081526004016106c290614f84565b60405180910390fd5b8160046000858152602001908152602001600020600501819055506004600084815260200190815260200160002060010160009054906101000a900473ffffffffffffffffffffffffffffffffffffffff1673ffffffffffffffffffffffffffffffffffffffff166004600085815260200190815260200160002060000154847f01e6a465ec1edd582d333147c7b7edf5998164f2cf2269dcb9c93d46c67bd3178560405161077a91906151a4565b60405180910390a4505050565b6000600260005414156107cf576040517f08c379a00000000000000000000000000000000000000000000000000000000081526004016107c690615124565b60405180910390fd5b60026000819055506107e8888888888888886000612076565b90506001600081905550979650505050505050565b60405161080990614b77565b604051809103902081565b60006002600054141561085c576040517f08c379a000000000000000000000000000000000000000000000000000000000815260040161085390615124565b60405180910390fd5b60026000819055506108748989898989898989612076565b9050600160008190555098975050505050505050565b600260005414156108d0576040517f08c379a00000000000000000000000000000000000000000000000000000000081526004016108c790615124565b60405180910390fd5b6002600081905550806108e281612007565b610921576040517f08c379a000000000000000000000000000000000000000000000000000000000815260040161091890614fe4565b60405180910390fd5b3373ffffffffffffffffffffffffffffffffffffffff166004600084815260200190815260200160002060060160019054906101000a900473ffffffffffffffffffffffffffffffffffffffff1673ffffffffffffffffffffffffffffffffffffffff1614806109f257503373ffffffffffffffffffffffffffffffffffffffff166004600084815260200190815260200160002060080160009054906101000a900473ffffffffffffffffffffffffffffffffffffffff1673ffffffffffffffffffffffffffffffffffffffff16145b610a31576040517f08c379a0000000000000000000000000000000000000000000000000000000008152600401610a2890614f24565b60405180910390fd5b6000600460008481526020019081526020016000206004015414610a8a576040517f08c379a0000000000000000000000000000000000000000000000000000000008152600401610a8190614e44565b60405180910390fd5b610a93826128f6565b50600160008190555050565b81610aa981612007565b610ae8576040517f08c379a0000000000000000000000000000000000000000000000000000000008152600401610adf90614fe4565b60405180910390fd5b6004600084815260200190815260200160002060080160009054906101000a900473ffffffffffffffffffffffffffffffffffffffff1673ffffffffffffffffffffffffffffffffffffffff163373ffffffffffffffffffffffffffffffffffffffff1614610b8c576040517f08c379a0000000000000000000000000000000000000000000000000000000008152600401610b8390614e64565b60405180910390fd5b6000600460008581526020019081526020016000206004015414610be5576040517f08c379a0000000000000000000000000000000000000000000000000000000008152600401610bdc90614f84565b60405180910390fd5b610bef8383612bb5565b505050565b600260009054906101000a900460ff1681565b81610c1181612007565b610c50576040517f08c379a0000000000000000000000000000000000000000000000000000000008152600401610c4790614fe4565b60405180910390fd5b60026000541415610c96576040517f08c379a0000000000000000000000000000000000000000000000000000000008152600401610c8d90615124565b60405180910390fd5b600260008190555060006004600085815260200190815260200160002060070160009054906101000a900473ffffffffffffffffffffffffffffffffffffffff1690506004600085815260200190815260200160002060010160149054906101000a900460ff16610d3c576040517f08c379a0000000000000000000000000000000000000000000000000000000008152600401610d3390614f64565b60405180910390fd5b600060046000868152602001908152602001600020600401541480610d9e5750610d9b60046000868152602001908152602001600020600301546004600087815260200190815260200160002060040154612c8390919063ffffffff16565b42105b610ddd576040517f08c379a0000000000000000000000000000000000000000000000000000000008152600401610dd490615144565b60405180910390fd5b6004600085815260200190815260200160002060050154831015610e36576040517f08c379a0000000000000000000000000000000000000000000000000000000008152600401610e2d90614f44565b60405180910390fd5b610eac610e876064610e79600260009054906101000a900460ff1660ff16600460008a815260200190815260200160002060020154612cd890919063ffffffff16565b612d4890919063ffffffff16565b6004600087815260200190815260200160002060020154612c8390919063ffffffff16565b831015610eee576040517f08c379a0000000000000000000000000000000000000000000000000000000008152600401610ee590614fa4565b60405180910390fd5b600073ffffffffffffffffffffffffffffffffffffffff166005600086815260200190815260200160002060009054906101000a900473ffffffffffffffffffffffffffffffffffffffff1673ffffffffffffffffffffffffffffffffffffffff16148061102957506005600085815260200190815260200160002060009054906101000a900473ffffffffffffffffffffffffffffffffffffffff1673ffffffffffffffffffffffffffffffffffffffff166391d14854604051610fb290614b77565b6040518091039020336040518363ffffffff1660e01b8152600401610fd8929190614da3565b60206040518083038186803b158015610ff057600080fd5b505afa158015611004573d6000803e3d6000fd5b505050506040513d601f19601f820116820180604052508101906110289190613e36565b5b611068576040517f08c379a000000000000000000000000000000000000000000000000000000000815260040161105f90615064565b60405180910390fd5b600260019054906101000a900473ffffffffffffffffffffffffffffffffffffffff1673ffffffffffffffffffffffffffffffffffffffff166004600086815260200190815260200160002060010160009054906101000a900473ffffffffffffffffffffffffffffffffffffffff1673ffffffffffffffffffffffffffffffffffffffff16141561127657600260019054906101000a900473ffffffffffffffffffffffffffffffffffffffff1673ffffffffffffffffffffffffffffffffffffffff1663a1794bcd6040518163ffffffff1660e01b8152600401602060405180830381600087803b15801561115e57600080fd5b505af1158015611172573d6000803e3d6000fd5b505050506040513d601f19601f820116820180604052508101906111969190613e0d565b73ffffffffffffffffffffffffffffffffffffffff166302e8fe136004600087815260200190815260200160002060000154856040518363ffffffff1660e01b81526004016111e69291906152a2565b60206040518083038186803b1580156111fe57600080fd5b505afa158015611212573d6000803e3d6000fd5b505050506040513d601f19601f820116820180604052508101906112369190613e36565b611275576040517f08c379a000000000000000000000000000000000000000000000000000000000815260040161126c90614e24565b60405180910390fd5b5b6000600460008681526020019081526020016000206004015414156112b557426004600086815260200190815260200160002060040181905550611342565b600073ffffffffffffffffffffffffffffffffffffffff168173ffffffffffffffffffffffffffffffffffffffff1614611341576113408160046000878152602001908152602001600020600201546004600088815260200190815260200160002060090160009054906101000a900473ffffffffffffffffffffffffffffffffffffffff16612d9e565b5b5b611382836004600087815260200190815260200160002060090160009054906101000a900473ffffffffffffffffffffffffffffffffffffffff16612f75565b826004600086815260200190815260200160002060020181905550336004600086815260200190815260200160002060070160006101000a81548173ffffffffffffffffffffffffffffffffffffffff021916908373ffffffffffffffffffffffffffffffffffffffff160217905550600080905060015461144b4261143d600460008a815260200190815260200160002060030154600460008b815260200190815260200160002060040154612c8390919063ffffffff16565b61321c90919063ffffffff16565b10156114ed576000600460008781526020019081526020016000206003015490506114cd6114be6114ad4261149f85600460008d815260200190815260200160002060040154612c8390919063ffffffff16565b61321c90919063ffffffff16565b60015461321c90919063ffffffff16565b82612c8390919063ffffffff16565b600460008881526020019081526020016000206003018190555060019150505b6004600086815260200190815260200160002060010160009054906101000a900473ffffffffffffffffffffffffffffffffffffffff1673ffffffffffffffffffffffffffffffffffffffff166004600087815260200190815260200160002060000154867fda6b779568630ce5e5658b317174df474d5b335541ed9471bd8424a017f3be6d3388600073ffffffffffffffffffffffffffffffffffffffff168873ffffffffffffffffffffffffffffffffffffffff1614876040516115b69493929190614c30565b60405180910390a48015611677576004600086815260200190815260200160002060010160009054906101000a900473ffffffffffffffffffffffffffffffffffffffff1673ffffffffffffffffffffffffffffffffffffffff166004600087815260200190815260200160002060000154867f55cf2b31608fbe49fa31cd0285b6b6cce46f56d26c8c59980a2af5a0ffbdd5db600460008a81526020019081526020016000206003015460405161166e91906151a4565b60405180910390a45b50506001600081905550505050565b8061169081612007565b6116cf576040517f08c379a00000000000000000000000000000000000000000000000000000000081526004016116c690614fe4565b60405180910390fd5b60026000541415611715576040517f08c379a000000000000000000000000000000000000000000000000000000000815260040161170c90615124565b60405180910390fd5b6002600081905550600060046000848152602001908152602001600020600401541415611777576040517f08c379a000000000000000000000000000000000000000000000000000000000815260040161176e90614ee4565b60405180910390fd5b6117b660046000848152602001908152602001600020600301546004600085815260200190815260200160002060040154612c8390919063ffffffff16565b4210156117f8576040517f08c379a00000000000000000000000000000000000000000000000000000000081526004016117ef906150c4565b60405180910390fd5b60008073ffffffffffffffffffffffffffffffffffffffff166004600085815260200190815260200160002060090160009054906101000a900473ffffffffffffffffffffffffffffffffffffffff1673ffffffffffffffffffffffffffffffffffffffff161461189f576004600084815260200190815260200160002060090160009054906101000a900473ffffffffffffffffffffffffffffffffffffffff166118c3565b600360009054906101000a900473ffffffffffffffffffffffffffffffffffffffff165b90506000809050600060046000868152602001908152602001600020600201549050600260019054906101000a900473ffffffffffffffffffffffffffffffffffffffff1673ffffffffffffffffffffffffffffffffffffffff166004600087815260200190815260200160002060010160009054906101000a900473ffffffffffffffffffffffffffffffffffffffff1673ffffffffffffffffffffffffffffffffffffffff161415611a375760008061197d8761326c565b915091508092506001151582151514611a3057611a1d6004600089815260200190815260200160002060070160009054906101000a900473ffffffffffffffffffffffffffffffffffffffff16600460008a815260200190815260200160002060020154600460008b815260200190815260200160002060090160009054906101000a900473ffffffffffffffffffffffffffffffffffffffff16612d9e565b611a26876128f6565b5050505050611ff5565b5050611bc4565b6004600086815260200190815260200160002060010160009054906101000a900473ffffffffffffffffffffffffffffffffffffffff1673ffffffffffffffffffffffffffffffffffffffff166342842e0e306004600089815260200190815260200160002060070160009054906101000a900473ffffffffffffffffffffffffffffffffffffffff16600460008a8152602001908152602001600020600001546040518463ffffffff1660e01b8152600401611af693929190614bc2565b600060405180830381600087803b158015611b1057600080fd5b505af1925050508015611b21575060015b611bc357611bb26004600087815260200190815260200160002060070160009054906101000a900473ffffffffffffffffffffffffffffffffffffffff1660046000888152602001908152602001600020600201546004600089815260200190815260200160002060090160009054906101000a900473ffffffffffffffffffffffffffffffffffffffff16612d9e565b611bbb856128f6565b505050611ff5565b5b600073ffffffffffffffffffffffffffffffffffffffff166004600087815260200190815260200160002060080160009054906101000a900473ffffffffffffffffffffffffffffffffffffffff1673ffffffffffffffffffffffffffffffffffffffff1614611d0957611c7a6064611c6c6004600089815260200190815260200160002060060160009054906101000a900460ff1660ff1684612cd890919063ffffffff16565b612d4890919063ffffffff16565b9150611c8f828261321c90919063ffffffff16565b9050611d086004600087815260200190815260200160002060080160009054906101000a900473ffffffffffffffffffffffffffffffffffffffff16836004600089815260200190815260200160002060090160009054906101000a900473ffffffffffffffffffffffffffffffffffffffff16612d9e565b5b611d806004600087815260200190815260200160002060060160019054906101000a900473ffffffffffffffffffffffffffffffffffffffff16826004600089815260200190815260200160002060090160009054906101000a900473ffffffffffffffffffffffffffffffffffffffff16612d9e565b6004600086815260200190815260200160002060010160009054906101000a900473ffffffffffffffffffffffffffffffffffffffff1673ffffffffffffffffffffffffffffffffffffffff166004600087815260200190815260200160002060000154867f4f35fb3ea0081b3ccbe8df613cab0f9e1694d50a025e0aa09b88a86a3d07c2de600460008a815260200190815260200160002060060160019054906101000a900473ffffffffffffffffffffffffffffffffffffffff16600460008b815260200190815260200160002060080160009054906101000a900473ffffffffffffffffffffffffffffffffffffffff16600460008c815260200190815260200160002060070160009054906101000a900473ffffffffffffffffffffffffffffffffffffffff1687898b604051611ec096959493929190614c75565b60405180910390a4600460008681526020019081526020016000206000808201600090556001820160006101000a81549073ffffffffffffffffffffffffffffffffffffffff02191690556001820160146101000a81549060ff021916905560028201600090556003820160009055600482016000905560058201600090556006820160006101000a81549060ff02191690556006820160016101000a81549073ffffffffffffffffffffffffffffffffffffffff02191690556007820160006101000a81549073ffffffffffffffffffffffffffffffffffffffff02191690556008820160006101000a81549073ffffffffffffffffffffffffffffffffffffffff02191690556009820160006101000a81549073ffffffffffffffffffffffffffffffffffffffff021916905550505050505b60016000819055505050565b60015481565b60008073ffffffffffffffffffffffffffffffffffffffff166004600084815260200190815260200160002060060160019054906101000a900473ffffffffffffffffffffffffffffffffffffffff1673ffffffffffffffffffffffffffffffffffffffff1614159050919050565b60008773ffffffffffffffffffffffffffffffffffffffff166301ffc9a76380ac58cd60e01b6040518263ffffffff1660e01b81526004016120b89190614dcc565b60206040518083038186803b1580156120d057600080fd5b505afa1580156120e4573d6000803e3d6000fd5b505050506040513d601f19601f820116820180604052508101906121089190613e36565b612147576040517f08c379a000000000000000000000000000000000000000000000000000000000815260040161213e90615164565b60405180910390fd5b600073ffffffffffffffffffffffffffffffffffffffff168273ffffffffffffffffffffffffffffffffffffffff16148061220e57508173ffffffffffffffffffffffffffffffffffffffff166301ffc9a7637965db0b60e01b6040518263ffffffff1660e01b81526004016121bd9190614dcc565b60206040518083038186803b1580156121d557600080fd5b505afa1580156121e9573d6000803e3d6000fd5b505050506040513d601f19601f8201168201806040525081019061220d9190613e36565b5b61224d576040517f08c379a000000000000000000000000000000000000000000000000000000000815260040161224490615024565b60405180910390fd5b60648460ff1610612293576040517f08c379a000000000000000000000000000000000000000000000000000000000815260040161228a906150e4565b60405180910390fd5b60008873ffffffffffffffffffffffffffffffffffffffff16636352211e8b6040518263ffffffff1660e01b81526004016122ce91906151a4565b60206040518083038186803b1580156122e657600080fd5b505afa1580156122fa573d6000803e3d6000fd5b505050506040513d601f19601f8201168201806040525081019061231e9190613e0d565b90508873ffffffffffffffffffffffffffffffffffffffff1663081812fc8b6040518263ffffffff1660e01b815260040161235991906151a4565b60206040518083038186803b15801561237157600080fd5b505afa158015612385573d6000803e3d6000fd5b505050506040513d601f19601f820116820180604052508101906123a99190613e0d565b73ffffffffffffffffffffffffffffffffffffffff163373ffffffffffffffffffffffffffffffffffffffff16148061240d57508073ffffffffffffffffffffffffffffffffffffffff163373ffffffffffffffffffffffffffffffffffffffff16145b61244c576040517f08c379a000000000000000000000000000000000000000000000000000000000815260040161244390615104565b60405180910390fd5b60006124586006613876565b90506040518061018001604052808c81526020018b73ffffffffffffffffffffffffffffffffffffffff168152602001600015158152602001600081526020018a8152602001600081526020018981526020018760ff1681526020018373ffffffffffffffffffffffffffffffffffffffff168152602001600073ffffffffffffffffffffffffffffffffffffffff1681526020018873ffffffffffffffffffffffffffffffffffffffff1681526020018673ffffffffffffffffffffffffffffffffffffffff16815250600460008381526020019081526020016000206000820151816000015560208201518160010160006101000a81548173ffffffffffffffffffffffffffffffffffffffff021916908373ffffffffffffffffffffffffffffffffffffffff16021790555060408201518160010160146101000a81548160ff021916908315150217905550606082015181600201556080820151816003015560a0820151816004015560c0820151816005015560e08201518160060160006101000a81548160ff021916908360ff1602179055506101008201518160060160016101000a81548173ffffffffffffffffffffffffffffffffffffffff021916908373ffffffffffffffffffffffffffffffffffffffff1602179055506101208201518160070160006101000a81548173ffffffffffffffffffffffffffffffffffffffff021916908373ffffffffffffffffffffffffffffffffffffffff1602179055506101408201518160080160006101000a81548173ffffffffffffffffffffffffffffffffffffffff021916908373ffffffffffffffffffffffffffffffffffffffff1602179055506101608201518160090160006101000a81548173ffffffffffffffffffffffffffffffffffffffff021916908373ffffffffffffffffffffffffffffffffffffffff160217905550905050836005600083815260200190815260200160002060006101000a81548173ffffffffffffffffffffffffffffffffffffffff021916908373ffffffffffffffffffffffffffffffffffffffff1602179055508973ffffffffffffffffffffffffffffffffffffffff166323b872dd83308e6040518463ffffffff1660e01b81526004016127a293929190614cd6565b600060405180830381600087803b1580156127bc57600080fd5b505af11580156127d0573d6000803e3d6000fd5b505050506127de6006613884565b8973ffffffffffffffffffffffffffffffffffffffff168b827f38c0b9047bd28fac9f420b967f6caf4a6260ba09d18940a9a502578a480c09008c8c878d8d8d604051612830969594939291906152cb565b60405180910390a4600073ffffffffffffffffffffffffffffffffffffffff166004600083815260200190815260200160002060080160009054906101000a900473ffffffffffffffffffffffffffffffffffffffff1673ffffffffffffffffffffffffffffffffffffffff1614806128d457508173ffffffffffffffffffffffffffffffffffffffff168773ffffffffffffffffffffffffffffffffffffffff16145b156128e5576128e4816001612bb5565b5b809250505098975050505050505050565b60006004600083815260200190815260200160002060060160019054906101000a900473ffffffffffffffffffffffffffffffffffffffff1690506004600083815260200190815260200160002060010160009054906101000a900473ffffffffffffffffffffffffffffffffffffffff1673ffffffffffffffffffffffffffffffffffffffff166342842e0e308360046000878152602001908152602001600020600001546040518463ffffffff1660e01b81526004016129ba93929190614bf9565b600060405180830381600087803b1580156129d457600080fd5b505af11580156129e8573d6000803e3d6000fd5b505050506004600083815260200190815260200160002060010160009054906101000a900473ffffffffffffffffffffffffffffffffffffffff1673ffffffffffffffffffffffffffffffffffffffff166004600084815260200190815260200160002060000154837f6091afcbe8514686c43b167ca4f1b03e24446d29d8490d496e438f8a2c76343984604051612a809190614b8c565b60405180910390a4600460008381526020019081526020016000206000808201600090556001820160006101000a81549073ffffffffffffffffffffffffffffffffffffffff02191690556001820160146101000a81549060ff021916905560028201600090556003820160009055600482016000905560058201600090556006820160006101000a81549060ff02191690556006820160016101000a81549073ffffffffffffffffffffffffffffffffffffffff02191690556007820160006101000a81549073ffffffffffffffffffffffffffffffffffffffff02191690556008820160006101000a81549073ffffffffffffffffffffffffffffffffffffffff02191690556009820160006101000a81549073ffffffffffffffffffffffffffffffffffffffff021916905550505050565b806004600084815260200190815260200160002060010160146101000a81548160ff0219169083151502179055506004600083815260200190815260200160002060010160009054906101000a900473ffffffffffffffffffffffffffffffffffffffff1673ffffffffffffffffffffffffffffffffffffffff166004600084815260200190815260200160002060000154837fec35d321ab4972475f131e184c0c0fe52c5a58a29d74f7db2969af2f6dd93a1f84604051612c779190614d6d565b60405180910390a45050565b600080828401905083811015612cce576040517f08c379a0000000000000000000000000000000000000000000000000000000008152600401612cc590614e84565b60405180910390fd5b8091505092915050565b600080831415612ceb5760009050612d42565b6000828402905082848281612cfc57fe5b0414612d3d576040517f08c379a0000000000000000000000000000000000000000000000000000000008152600401612d3490614fc4565b60405180910390fd5b809150505b92915050565b6000808211612d8c576040517f08c379a0000000000000000000000000000000000000000000000000000000008152600401612d8390614f04565b60405180910390fd5b818381612d9557fe5b04905092915050565b600073ffffffffffffffffffffffffffffffffffffffff168173ffffffffffffffffffffffffffffffffffffffff161415612f4457600360009054906101000a900473ffffffffffffffffffffffffffffffffffffffff1673ffffffffffffffffffffffffffffffffffffffff16632e1a7d4d836040518263ffffffff1660e01b8152600401612e2e91906151a4565b600060405180830381600087803b158015612e4857600080fd5b505af1158015612e5c573d6000803e3d6000fd5b50505050612e6a838361389a565b612f3f57600360009054906101000a900473ffffffffffffffffffffffffffffffffffffffff1673ffffffffffffffffffffffffffffffffffffffff1663d0e30db0836040518263ffffffff1660e01b81526004016000604051808303818588803b158015612ed857600080fd5b505af1158015612eec573d6000803e3d6000fd5b5050505050612f3e8383600360009054906101000a900473ffffffffffffffffffffffffffffffffffffffff1673ffffffffffffffffffffffffffffffffffffffff1661395e9092919063ffffffff16565b5b612f70565b612f6f83838373ffffffffffffffffffffffffffffffffffffffff1661395e9092919063ffffffff16565b5b505050565b600073ffffffffffffffffffffffffffffffffffffffff168173ffffffffffffffffffffffffffffffffffffffff16141561307457813414612fec576040517f08c379a0000000000000000000000000000000000000000000000000000000008152600401612fe390615004565b60405180910390fd5b600360009054906101000a900473ffffffffffffffffffffffffffffffffffffffff1673ffffffffffffffffffffffffffffffffffffffff1663d0e30db0836040518263ffffffff1660e01b81526004016000604051808303818588803b15801561305657600080fd5b505af115801561306a573d6000803e3d6000fd5b5050505050613218565b600081905060008173ffffffffffffffffffffffffffffffffffffffff166370a08231306040518263ffffffff1660e01b81526004016130b49190614ba7565b60206040518083038186803b1580156130cc57600080fd5b505afa1580156130e0573d6000803e3d6000fd5b505050506040513d601f19601f820116820180604052508101906131049190613e88565b90506131333330868573ffffffffffffffffffffffffffffffffffffffff166139e4909392919063ffffffff16565b60008273ffffffffffffffffffffffffffffffffffffffff166370a08231306040518263ffffffff1660e01b815260040161316e9190614ba7565b60206040518083038186803b15801561318657600080fd5b505afa15801561319a573d6000803e3d6000fd5b505050506040513d601f19601f820116820180604052508101906131be9190613e88565b9050806131d48684612c8390919063ffffffff16565b14613214576040517f08c379a000000000000000000000000000000000000000000000000000000000815260040161320b90615184565b60405180910390fd5b5050505b5050565b600082821115613261576040517f08c379a000000000000000000000000000000000000000000000000000000000815260040161325890614ea4565b60405180910390fd5b818303905092915050565b60008060008073ffffffffffffffffffffffffffffffffffffffff166004600086815260200190815260200160002060090160009054906101000a900473ffffffffffffffffffffffffffffffffffffffff1673ffffffffffffffffffffffffffffffffffffffff1614613316576004600085815260200190815260200160002060090160009054906101000a900473ffffffffffffffffffffffffffffffffffffffff1661333a565b600360009054906101000a900473ffffffffffffffffffffffffffffffffffffffff165b9050613344613cdb565b6040518060a00160405280600460008881526020019081526020016000206002015481526020018373ffffffffffffffffffffffffffffffffffffffff1681526020013073ffffffffffffffffffffffffffffffffffffffff1681526020016004600088815260200190815260200160002060070160009054906101000a900473ffffffffffffffffffffffffffffffffffffffff1673ffffffffffffffffffffffffffffffffffffffff1681526020016040518060200160405280600081525081525090508173ffffffffffffffffffffffffffffffffffffffff1663095ea7b3600260019054906101000a900473ffffffffffffffffffffffffffffffffffffffff1673ffffffffffffffffffffffffffffffffffffffff1663a1794bcd6040518163ffffffff1660e01b8152600401602060405180830381600087803b15801561349057600080fd5b505af11580156134a4573d6000803e3d6000fd5b505050506040513d601f19601f820116820180604052508101906134c89190613e0d565b83600001516040518363ffffffff1660e01b81526004016134ea929190614d44565b602060405180830381600087803b15801561350457600080fd5b505af1158015613518573d6000803e3d6000fd5b505050506040513d601f19601f8201168201806040525081019061353c9190613e36565b50600260019054906101000a900473ffffffffffffffffffffffffffffffffffffffff1673ffffffffffffffffffffffffffffffffffffffff16635bf624226004600088815260200190815260200160002060000154836040518363ffffffff1660e01b81526004016135b0929190615279565b600060405180830381600087803b1580156135ca57600080fd5b505af11580156135de573d6000803e3d6000fd5b5050505060008273ffffffffffffffffffffffffffffffffffffffff166370a08231306040518263ffffffff1660e01b815260040161361d9190614ba7565b60206040518083038186803b15801561363557600080fd5b505afa158015613649573d6000803e3d6000fd5b505050506040513d601f19601f8201168201806040525081019061366d9190613e88565b9050600260019054906101000a900473ffffffffffffffffffffffffffffffffffffffff1673ffffffffffffffffffffffffffffffffffffffff1663ba3393996004600089815260200190815260200160002060000154846040518363ffffffff1660e01b81526004016136e2929190615279565b600060405180830381600087803b1580156136fc57600080fd5b505af192505050801561370d575060015b6137c657600260019054906101000a900473ffffffffffffffffffffffffffffffffffffffff1673ffffffffffffffffffffffffffffffffffffffff1663b320f45960046000898152602001908152602001600020600001546040518263ffffffff1660e01b815260040161378291906151a4565b600060405180830381600087803b15801561379c57600080fd5b505af11580156137b0573d6000803e3d6000fd5b5050505060008080905094509450505050613871565b60008373ffffffffffffffffffffffffffffffffffffffff166370a08231306040518263ffffffff1660e01b81526004016138019190614ba7565b60206040518083038186803b15801561381957600080fd5b505afa15801561382d573d6000803e3d6000fd5b505050506040513d601f19601f820116820180604052508101906138519190613e88565b90506001613868838361321c90919063ffffffff16565b95509550505050505b915091565b600081600001549050919050565b6001816000016000828254019250508190555050565b6000808373ffffffffffffffffffffffffffffffffffffffff1683600067ffffffffffffffff811180156138cd57600080fd5b506040519080825280601f01601f1916602001820160405280156139005781602001600182028036833780820191505090505b5060405161390e9190614b60565b60006040518083038185875af1925050503d806000811461394b576040519150601f19603f3d011682016040523d82523d6000602084013e613950565b606091505b505090508091505092915050565b6139df8363a9059cbb60e01b848460405160240161397d929190614d44565b604051602081830303815290604052907bffffffffffffffffffffffffffffffffffffffffffffffffffffffff19166020820180517bffffffffffffffffffffffffffffffffffffffffffffffffffffffff8381831617835250505050613a6d565b505050565b613a67846323b872dd60e01b858585604051602401613a0593929190614d0d565b604051602081830303815290604052907bffffffffffffffffffffffffffffffffffffffffffffffffffffffff19166020820180517bffffffffffffffffffffffffffffffffffffffffffffffffffffffff8381831617835250505050613a6d565b50505050565b6060613acf826040518060400160405280602081526020017f5361666545524332303a206c6f772d6c6576656c2063616c6c206661696c65648152508573ffffffffffffffffffffffffffffffffffffffff16613b349092919063ffffffff16565b9050600081511115613b2f5780806020019051810190613aef9190613e36565b613b2e576040517f08c379a0000000000000000000000000000000000000000000000000000000008152600401613b25906150a4565b60405180910390fd5b5b505050565b6060613b438484600085613b4c565b90509392505050565b606082471015613b91576040517f08c379a0000000000000000000000000000000000000000000000000000000008152600401613b8890614ec4565b60405180910390fd5b613b9a85613c61565b613bd9576040517f08c379a0000000000000000000000000000000000000000000000000000000008152600401613bd090615084565b60405180910390fd5b600060608673ffffffffffffffffffffffffffffffffffffffff168587604051613c039190614b60565b60006040518083038185875af1925050503d8060008114613c40576040519150601f19603f3d011682016040523d82523d6000602084013e613c45565b606091505b5091509150613c55828286613c74565b92505050949350505050565b600080823b905060008111915050919050565b60608315613c8457829050613cd4565b600083511115613c975782518084602001fd5b816040517f08c379a0000000000000000000000000000000000000000000000000000000008152600401613ccb9190614e02565b60405180910390fd5b9392505050565b6040518060a0016040528060008152602001600073ffffffffffffffffffffffffffffffffffffffff168152602001600073ffffffffffffffffffffffffffffffffffffffff168152602001600073ffffffffffffffffffffffffffffffffffffffff168152602001613d4c613d52565b81525090565b6040518060200160405280600081525090565b600081359050613d74816154bf565b92915050565b600081519050613d89816154bf565b92915050565b600081359050613d9e816154d6565b92915050565b600081359050613db3816154ed565b92915050565b600081519050613dc8816154ed565b92915050565b600081359050613ddd81615504565b92915050565b600081519050613df281615504565b92915050565b600081359050613e078161551b565b92915050565b600060208284031215613e1f57600080fd5b6000613e2d84828501613d7a565b91505092915050565b600060208284031215613e4857600080fd5b6000613e5684828501613db9565b91505092915050565b600060208284031215613e7157600080fd5b6000613e7f84828501613dce565b91505092915050565b600060208284031215613e9a57600080fd5b6000613ea884828501613de3565b91505092915050565b600080600080600080600060e0888a031215613ecc57600080fd5b6000613eda8a828b01613dce565b9750506020613eeb8a828b01613d65565b9650506040613efc8a828b01613dce565b9550506060613f0d8a828b01613dce565b9450506080613f1e8a828b01613d8f565b93505060a0613f2f8a828b01613df8565b92505060c0613f408a828b01613d65565b91505092959891949750929550565b600080600080600080600080610100898b031215613f6c57600080fd5b6000613f7a8b828c01613dce565b9850506020613f8b8b828c01613d65565b9750506040613f9c8b828c01613dce565b9650506060613fad8b828c01613dce565b9550506080613fbe8b828c01613d8f565b94505060a0613fcf8b828c01613df8565b93505060c0613fe08b828c01613d65565b92505060e0613ff18b828c01613d65565b9150509295985092959890939650565b6000806040838503121561401457600080fd5b600061402285828601613dce565b925050602061403385828601613da4565b9150509250929050565b6000806040838503121561405057600080fd5b600061405e85828601613dce565b925050602061406f85828601613dce565b9150509250929050565b61408281615421565b82525050565b61409181615396565b82525050565b6140a081615384565b82525050565b6140af81615384565b82525050565b6140be816153a8565b82525050565b6140cd816153b4565b82525050565b6140dc816153be565b82525050565b60006140ed82615347565b6140f7818561535d565b935061410781856020860161547b565b80840191505092915050565b61411c81615433565b82525050565b600061412d82615352565b6141378185615368565b935061414781856020860161547b565b614150816154ae565b840191505092915050565b6000614168601f83615368565b91507f42696420696e76616c696420666f722073686172652073706c697474696e67006000830152602082019050919050565b60006141a8602783615368565b91507f43616e27742063616e63656c20616e2061756374696f6e206f6e63652069742760008301527f7320626567756e000000000000000000000000000000000000000000000000006020830152604082019050919050565b600061420e601783615368565b91507f4d7573742062652061756374696f6e2063757261746f720000000000000000006000830152602082019050919050565b600061424e601b83615368565b91507f536166654d6174683a206164646974696f6e206f766572666c6f7700000000006000830152602082019050919050565b600061428e601e83615368565b91507f536166654d6174683a207375627472616374696f6e206f766572666c6f7700006000830152602082019050919050565b60006142ce602683615368565b91507f416464726573733a20696e73756666696369656e742062616c616e636520666f60008301527f722063616c6c00000000000000000000000000000000000000000000000000006020830152604082019050919050565b6000614334601483615368565b91507f41756374696f6e206861736e277420626567756e0000000000000000000000006000830152602082019050919050565b6000614374601a83615368565b91507f536166654d6174683a206469766973696f6e206279207a65726f0000000000006000830152602082019050919050565b60006143b4603083615368565b91507f43616e206f6e6c792062652063616c6c65642062792061756374696f6e20637260008301527f6561746f72206f722063757261746f72000000000000000000000000000000006020830152604082019050919050565b600061441a601f83615368565b91507f4d7573742073656e64206174206c6561737420726573657276655072696365006000830152602082019050919050565b600061445a602383615368565b91507f41756374696f6e206d75737420626520617070726f766564206279206375726160008301527f746f7200000000000000000000000000000000000000000000000000000000006020830152604082019050919050565b60006144c0601b83615368565b91507f41756374696f6e2068617320616c7265616479207374617274656400000000006000830152602082019050919050565b6000614500604083615368565b91507f4d7573742073656e64206d6f7265207468616e206c617374206269642062792060008301527f6d696e426964496e6372656d656e7450657263656e7461676520616d6f756e746020830152604082019050919050565b6000614566602183615368565b91507f536166654d6174683a206d756c7469706c69636174696f6e206f766572666c6f60008301527f77000000000000000000000000000000000000000000000000000000000000006020830152604082019050919050565b60006145cc601583615368565b91507f41756374696f6e20646f65736e277420657869737400000000000000000000006000830152602082019050919050565b600061460c603283615368565b91507f53656e74204554482056616c756520646f6573206e6f74206d6174636820737060008301527f656369666965642062696420616d6f756e7400000000000000000000000000006020830152604082019050919050565b6000614672603e83615368565b91507f616363657373436f6e74726f6c436f6e747261637420646f6573206e6f74207360008301527f7570706f727420416363657373436f6e74726f6c20696e7465726661636500006020830152604082019050919050565b60006146d8602683615368565b91507f4d7573742062652061756374696f6e2063757261746f72206f7220746f6b656e60008301527f206f776e657200000000000000000000000000000000000000000000000000006020830152604082019050919050565b600061473e601583615368565b91507f4d75737420686176652042494444455220726f6c6500000000000000000000006000830152602082019050919050565b600061477e601d83615368565b91507f416464726573733a2063616c6c20746f206e6f6e2d636f6e74726163740000006000830152602082019050919050565b60006147be600683615379565b91507f42494444455200000000000000000000000000000000000000000000000000006000830152600682019050919050565b60006147fe602a83615368565b91507f5361666545524332303a204552433230206f7065726174696f6e20646964206e60008301527f6f742073756363656564000000000000000000000000000000000000000000006020830152604082019050919050565b6000614864601883615368565b91507f41756374696f6e206861736e277420636f6d706c6574656400000000000000006000830152602082019050919050565b60006148a4602a83615368565b91507f63757261746f7246656550657263656e74616765206d757374206265206c657360008301527f73207468616e20313030000000000000000000000000000000000000000000006020830152604082019050919050565b600061490a602d83615368565b91507f43616c6c6572206d75737420626520617070726f766564206f72206f776e657260008301527f20666f7220746f6b656e206964000000000000000000000000000000000000006020830152604082019050919050565b6000614970601f83615368565b91507f5265656e7472616e637947756172643a207265656e7472616e742063616c6c006000830152602082019050919050565b60006149b0600f83615368565b91507f41756374696f6e206578706972656400000000000000000000000000000000006000830152602082019050919050565b60006149f0602f83615368565b91507f746f6b656e436f6e747261637420646f6573206e6f7420737570706f7274204560008301527f524337323120696e7465726661636500000000000000000000000000000000006020830152604082019050919050565b6000614a56603483615368565b91507f546f6b656e207472616e736665722063616c6c20646964206e6f74207472616e60008301527f7366657220657870656374656420616d6f756e740000000000000000000000006020830152604082019050919050565b60a082016000820151614ac56000850182614b33565b506020820151614ad86020850182614097565b506040820151614aeb6040850182614097565b506060820151614afe6060850182614097565b506080820151614b116080850182614b17565b50505050565b602082016000820151614b2d6000850182614b33565b50505050565b614b3c8161540a565b82525050565b614b4b8161540a565b82525050565b614b5a81615414565b82525050565b6000614b6c82846140e2565b915081905092915050565b6000614b82826147b1565b9150819050919050565b6000602082019050614ba160008301846140a6565b92915050565b6000602082019050614bbc6000830184614079565b92915050565b6000606082019050614bd76000830186614079565b614be46020830185614079565b614bf16040830184614b42565b949350505050565b6000606082019050614c0e6000830186614079565b614c1b60208301856140a6565b614c286040830184614b42565b949350505050565b6000608082019050614c456000830187614079565b614c526020830186614b42565b614c5f60408301856140b5565b614c6c60608301846140b5565b95945050505050565b600060c082019050614c8a60008301896140a6565b614c976020830188614079565b614ca46040830187614079565b614cb16060830186614b42565b614cbe6080830185614b42565b614ccb60a08301846140a6565b979650505050505050565b6000606082019050614ceb60008301866140a6565b614cf86020830185614079565b614d056040830184614b42565b949350505050565b6000606082019050614d2260008301866140a6565b614d2f60208301856140a6565b614d3c6040830184614b42565b949350505050565b6000604082019050614d5960008301856140a6565b614d666020830184614b42565b9392505050565b6000602082019050614d8260008301846140b5565b92915050565b6000602082019050614d9d60008301846140c4565b92915050565b6000604082019050614db860008301856140c4565b614dc56020830184614079565b9392505050565b6000602082019050614de160008301846140d3565b92915050565b6000602082019050614dfc6000830184614113565b92915050565b60006020820190508181036000830152614e1c8184614122565b905092915050565b60006020820190508181036000830152614e3d8161415b565b9050919050565b60006020820190508181036000830152614e5d8161419b565b9050919050565b60006020820190508181036000830152614e7d81614201565b9050919050565b60006020820190508181036000830152614e9d81614241565b9050919050565b60006020820190508181036000830152614ebd81614281565b9050919050565b60006020820190508181036000830152614edd816142c1565b9050919050565b60006020820190508181036000830152614efd81614327565b9050919050565b60006020820190508181036000830152614f1d81614367565b9050919050565b60006020820190508181036000830152614f3d816143a7565b9050919050565b60006020820190508181036000830152614f5d8161440d565b9050919050565b60006020820190508181036000830152614f7d8161444d565b9050919050565b60006020820190508181036000830152614f9d816144b3565b9050919050565b60006020820190508181036000830152614fbd816144f3565b9050919050565b60006020820190508181036000830152614fdd81614559565b9050919050565b60006020820190508181036000830152614ffd816145bf565b9050919050565b6000602082019050818103600083015261501d816145ff565b9050919050565b6000602082019050818103600083015261503d81614665565b9050919050565b6000602082019050818103600083015261505d816146cb565b9050919050565b6000602082019050818103600083015261507d81614731565b9050919050565b6000602082019050818103600083015261509d81614771565b9050919050565b600060208201905081810360008301526150bd816147f1565b9050919050565b600060208201905081810360008301526150dd81614857565b9050919050565b600060208201905081810360008301526150fd81614897565b9050919050565b6000602082019050818103600083015261511d816148fd565b9050919050565b6000602082019050818103600083015261513d81614963565b9050919050565b6000602082019050818103600083015261515d816149a3565b9050919050565b6000602082019050818103600083015261517d816149e3565b9050919050565b6000602082019050818103600083015261519d81614a49565b9050919050565b60006020820190506151b96000830184614b42565b92915050565b6000610180820190506151d5600083018f614b42565b6151e2602083018e6140a6565b6151ef604083018d6140b5565b6151fc606083018c614b42565b615209608083018b614b42565b61521660a083018a614b42565b61522360c0830189614b42565b61523060e0830188614b51565b61523e6101008301876140a6565b61524c610120830186614088565b61525a610140830185614088565b6152686101608301846140a6565b9d9c50505050505050505050505050565b600060c08201905061528e6000830185614b42565b61529b6020830184614aaf565b9392505050565b60006040820190506152b76000830185614b42565b6152c46020830184614b42565b9392505050565b600060c0820190506152e06000830189614b42565b6152ed6020830188614b42565b6152fa60408301876140a6565b6153076060830186614079565b6153146080830185614b51565b61532160a08301846140a6565b979650505050505050565b60006020820190506153416000830184614b51565b92915050565b600081519050919050565b600081519050919050565b600081905092915050565b600082825260208201905092915050565b600081905092915050565b600061538f826153ea565b9050919050565b60006153a1826153ea565b9050919050565b60008115159050919050565b6000819050919050565b60007fffffffff0000000000000000000000000000000000000000000000000000000082169050919050565b600073ffffffffffffffffffffffffffffffffffffffff82169050919050565b6000819050919050565b600060ff82169050919050565b600061542c82615457565b9050919050565b600061543e82615445565b9050919050565b6000615450826153ea565b9050919050565b600061546282615469565b9050919050565b6000615474826153ea565b9050919050565b60005b8381101561549957808201518184015260208101905061547e565b838111156154a8576000848401525b50505050565b6000601f19601f8301169050919050565b6154c881615384565b81146154d357600080fd5b50565b6154df81615396565b81146154ea57600080fd5b50565b6154f6816153a8565b811461550157600080fd5b50565b61550d8161540a565b811461551857600080fd5b50565b61552481615414565b811461552f57600080fd5b5056fea26469706673582212206f139c9a2a48350ceeb08e85278b76d112fb3b7808fbcd1e2e16cef05f38bfd964736f6c63430006080033",
  "linkReferences": {},
  "deployedLinkReferences": {}
}